{"abi":[{"type":"constructor","inputs":[{"name":"cardNFTAddress","type":"address","internalType":"address"}],"stateMutability":"nonpayable"},{"type":"function","name":"ADMIN_ROLE","inputs":[],"outputs":[{"name":"","type":"bytes32","internalType":"bytes32"}],"stateMutability":"view"},{"type":"function","name":"DEFAULT_ADMIN_ROLE","inputs":[],"outputs":[{"name":"","type":"bytes32","internalType":"bytes32"}],"stateMutability":"view"},{"type":"function","name":"cancelTrade","inputs":[{"name":"tradeId","type":"uint256","internalType":"uint256"}],"outputs":[],"stateMutability":"nonpayable"},{"type":"function","name":"cardNFT","inputs":[],"outputs":[{"name":"","type":"address","internalType":"contract CardNFT"}],"stateMutability":"view"},{"type":"function","name":"completedTrades","inputs":[{"name":"","type":"uint256","internalType":"uint256"}],"outputs":[{"name":"","type":"bool","internalType":"bool"}],"stateMutability":"view"},{"type":"function","name":"executeTrade","inputs":[{"name":"partyA","type":"address","internalType":"address"},{"name":"partyB","type":"address","internalType":"address"},{"name":"partyACards","type":"uint256[]","internalType":"uint256[]"},{"name":"partyBCards","type":"uint256[]","internalType":"uint256[]"}],"outputs":[{"name":"tradeId","type":"uint256","internalType":"uint256"}],"stateMutability":"nonpayable"},{"type":"function","name":"getNextTradeId","inputs":[],"outputs":[{"name":"","type":"uint256","internalType":"uint256"}],"stateMutability":"view"},{"type":"function","name":"getRoleAdmin","inputs":[{"name":"role","type":"bytes32","internalType":"bytes32"}],"outputs":[{"name":"","type":"bytes32","internalType":"bytes32"}],"stateMutability":"view"},{"type":"function","name":"grantRole","inputs":[{"name":"role","type":"bytes32","internalType":"bytes32"},{"name":"account","type":"address","internalType":"address"}],"outputs":[],"stateMutability":"nonpayable"},{"type":"function","name":"hasRole","inputs":[{"name":"role","type":"bytes32","internalType":"bytes32"},{"name":"account","type":"address","internalType":"address"}],"outputs":[{"name":"","type":"bool","internalType":"bool"}],"stateMutability":"view"},{"type":"function","name":"isTradeCompleted","inputs":[{"name":"tradeId","type":"uint256","internalType":"uint256"}],"outputs":[{"name":"","type":"bool","internalType":"bool"}],"stateMutability":"view"},{"type":"function","name":"renounceRole","inputs":[{"name":"role","type":"bytes32","internalType":"bytes32"},{"name":"callerConfirmation","type":"address","internalType":"address"}],"outputs":[],"stateMutability":"nonpayable"},{"type":"function","name":"revokeRole","inputs":[{"name":"role","type":"bytes32","internalType":"bytes32"},{"name":"account","type":"address","internalType":"address"}],"outputs":[],"stateMutability":"nonpayable"},{"type":"function","name":"supportsInterface","inputs":[{"name":"interfaceId","type":"bytes4","internalType":"bytes4"}],"outputs":[{"name":"","type":"bool","internalType":"bool"}],"stateMutability":"view"},{"type":"event","name":"RoleAdminChanged","inputs":[{"name":"role","type":"bytes32","indexed":true,"internalType":"bytes32"},{"name":"previousAdminRole","type":"bytes32","indexed":true,"internalType":"bytes32"},{"name":"newAdminRole","type":"bytes32","indexed":true,"internalType":"bytes32"}],"anonymous":false},{"type":"event","name":"RoleGranted","inputs":[{"name":"role","type":"bytes32","indexed":true,"internalType":"bytes32"},{"name":"account","type":"address","indexed":true,"internalType":"address"},{"name":"sender","type":"address","indexed":true,"internalType":"address"}],"anonymous":false},{"type":"event","name":"RoleRevoked","inputs":[{"name":"role","type":"bytes32","indexed":true,"internalType":"bytes32"},{"name":"account","type":"address","indexed":true,"internalType":"address"},{"name":"sender","type":"address","indexed":true,"internalType":"address"}],"anonymous":false},{"type":"event","name":"TradeCancelled","inputs":[{"name":"tradeId","type":"uint256","indexed":true,"internalType":"uint256"},{"name":"cancelledBy","type":"address","indexed":true,"internalType":"address"},{"name":"cancelledAt","type":"uint256","indexed":false,"internalType":"uint256"}],"anonymous":false},{"type":"event","name":"TradeExecuted","inputs":[{"name":"tradeId","type":"uint256","indexed":true,"internalType":"uint256"},{"name":"partyA","type":"address","indexed":true,"internalType":"address"},{"name":"partyB","type":"address","indexed":true,"internalType":"address"},{"name":"partyACards","type":"uint256[]","indexed":false,"internalType":"uint256[]"},{"name":"partyBCards","type":"uint256[]","indexed":false,"internalType":"uint256[]"},{"name":"executedAt","type":"uint256","indexed":false,"internalType":"uint256"}],"anonymous":false},{"type":"error","name":"AccessControlBadConfirmation","inputs":[]},{"type":"error","name":"AccessControlUnauthorizedAccount","inputs":[{"name":"account","type":"address","internalType":"address"},{"name":"neededRole","type":"bytes32","internalType":"bytes32"}]},{"type":"error","name":"ReentrancyGuardReentrantCall","inputs":[]}],"bytecode":{"object":"0x60a060405260018055348015610013575f80fd5b50604051610f28380380610f28833981016040819052610032916101a2565b60017f9b779b17422d0df92223018b32b4d1fa46e071723d6817e2486d003becc55f00556001600160a01b0381166100b05760405162461bcd60e51b815260206004820181905260248201527f54726164696e673a20496e76616c696420436172644e46542061646472657373604482015260640160405180910390fd5b6001600160a01b0381166080526100c75f336100f9565b506100f27fa49807205ce4d355092ef5a8a18f56e8913cf4a201fbe287825b095693c21775336100f9565b50506101cf565b5f828152602081815260408083206001600160a01b038516845290915281205460ff16610199575f838152602081815260408083206001600160a01b03861684529091529020805460ff191660011790556101513390565b6001600160a01b0316826001600160a01b0316847f2f8788117e7eff1d82e926ec794901d17c78024a50270940304540a733656f0d60405160405180910390a450600161019c565b505f5b92915050565b5f602082840312156101b2575f80fd5b81516001600160a01b03811681146101c8575f80fd5b9392505050565b608051610d256102035f395f81816101810152818161049d015281816105a20152818161067001526107750152610d255ff3fe608060405234801561000f575f80fd5b50600436106100e5575f3560e01c806375b238fc11610088578063af2aa8bd11610063578063af2aa8bd1461020f578063d547741f14610231578063d93315ba14610244578063ea4aa01614610266575f80fd5b806375b238fc146101ce57806391d14854146101f5578063a217fddf14610208575f80fd5b80632f2ff15d116100c35780632f2ff15d1461015657806336568abe1461016957806338d5d7d11461017c5780637479da6a146101bb575f80fd5b806301ffc9a7146100e957806309ec6cc714610111578063248a9ca314610126575b5f80fd5b6100fc6100f7366004610afe565b61026e565b60405190151581526020015b60405180910390f35b61012461011f366004610b2c565b61027e565b005b610148610134366004610b2c565b5f9081526020819052604090206001015490565b604051908152602001610108565b610124610164366004610b57565b6102b8565b610124610177366004610b57565b6102e2565b6101a37f000000000000000000000000000000000000000000000000000000000000000081565b6040516001600160a01b039091168152602001610108565b6101486101c9366004610bcd565b61031a565b6101487fa49807205ce4d355092ef5a8a18f56e8913cf4a201fbe287825b095693c2177581565b6100fc610203366004610b57565b6108ca565b6101485f81565b6100fc61021d366004610b2c565b60026020525f908152604090205460ff1681565b61012461023f366004610b57565b6108f2565b6100fc610252366004610b2c565b5f9081526002602052604090205460ff1690565b600154610148565b5f61027882610916565b92915050565b604051428152339082907f39589118665ecc4259f60e6f10eafc49b52d7cba5c31f5e1e2aa770aab3fbc0d9060200160405180910390a350565b5f828152602081905260409020600101546102d28161094a565b6102dc8383610957565b50505050565b6001600160a01b038116331461030b5760405163334bd91960e11b815260040160405180910390fd5b61031582826109e6565b505050565b5f610323610a4f565b856001600160a01b0316876001600160a01b0316036103895760405162461bcd60e51b815260206004820152601f60248201527f54726164696e673a2043616e6e6f7420747261646520776974682073656c660060448201526064015b60405180910390fd5b836103d65760405162461bcd60e51b815260206004820181905260248201527f54726164696e673a20506172747941206d757374206f666665722063617264736044820152606401610380565b816104235760405162461bcd60e51b815260206004820181905260248201527f54726164696e673a20506172747942206d757374206f666665722063617264736044820152606401610380565b8382146104725760405162461bcd60e51b815260206004820152601f60248201527f54726164696e673a204361726420636f756e7473206d757374206d61746368006044820152606401610380565b60018054905f61048183610c5c565b9190505590505f5b8481101561065957876001600160a01b03167f00000000000000000000000000000000000000000000000000000000000000006001600160a01b0316636352211e8888858181106104dc576104dc610c80565b905060200201356040518263ffffffff1660e01b815260040161050191815260200190565b602060405180830381865afa15801561051c573d5f803e3d5ffd5b505050506040513d601f19601f820116820180604052508101906105409190610c94565b6001600160a01b0316146105a05760405162461bcd60e51b815260206004820152602160248201527f54726164696e673a2050617274794120646f6573206e6f74206f776e206361726044820152601960fa1b6064820152608401610380565b7f00000000000000000000000000000000000000000000000000000000000000006001600160a01b03166323b872dd89898989868181106105e3576105e3610c80565b6040516001600160e01b031960e088901b1681526001600160a01b039586166004820152949093166024850152506020909102013560448201526064015f604051808303815f87803b158015610637575f80fd5b505af1158015610649573d5f803e3d5ffd5b5050600190920191506104899050565b505f5b8281101561082c57866001600160a01b03167f00000000000000000000000000000000000000000000000000000000000000006001600160a01b0316636352211e8686858181106106af576106af610c80565b905060200201356040518263ffffffff1660e01b81526004016106d491815260200190565b602060405180830381865afa1580156106ef573d5f803e3d5ffd5b505050506040513d601f19601f820116820180604052508101906107139190610c94565b6001600160a01b0316146107735760405162461bcd60e51b815260206004820152602160248201527f54726164696e673a2050617274794220646f6573206e6f74206f776e206361726044820152601960fa1b6064820152608401610380565b7f00000000000000000000000000000000000000000000000000000000000000006001600160a01b03166323b872dd888a8787868181106107b6576107b6610c80565b6040516001600160e01b031960e088901b1681526001600160a01b039586166004820152949093166024850152506020909102013560448201526064015f604051808303815f87803b15801561080a575f80fd5b505af115801561081c573d5f803e3d5ffd5b50506001909201915061065c9050565b505f8181526002602052604090819020805460ff19166001179055516001600160a01b03808816919089169083907f7b55d08f0f3a2bff3e93cab4e00590fb05ef8a3d912e9600ab0816a5c7f5544c9061088f908a908a908a908a904290610cdf565b60405180910390a46108c060017f9b779b17422d0df92223018b32b4d1fa46e071723d6817e2486d003becc55f0055565b9695505050505050565b5f918252602082815260408084206001600160a01b0393909316845291905290205460ff1690565b5f8281526020819052604090206001015461090c8161094a565b6102dc83836109e6565b5f6001600160e01b03198216637965db0b60e01b148061027857506301ffc9a760e01b6001600160e01b0319831614610278565b6109548133610a7d565b50565b5f61096283836108ca565b6109df575f838152602081815260408083206001600160a01b03861684529091529020805460ff191660011790556109973390565b6001600160a01b0316826001600160a01b0316847f2f8788117e7eff1d82e926ec794901d17c78024a50270940304540a733656f0d60405160405180910390a4506001610278565b505f610278565b5f6109f183836108ca565b156109df575f838152602081815260408083206001600160a01b0386168085529252808320805460ff1916905551339286917ff6391f5c32d9c69d2a47ea670b442974b53935d1edc7fd64eb21e047a839171b9190a4506001610278565b610a57610aba565b60027f9b779b17422d0df92223018b32b4d1fa46e071723d6817e2486d003becc55f0055565b610a8782826108ca565b610ab65760405163e2517d3f60e01b81526001600160a01b038216600482015260248101839052604401610380565b5050565b7f9b779b17422d0df92223018b32b4d1fa46e071723d6817e2486d003becc55f0054600203610afc57604051633ee5aeb560e01b815260040160405180910390fd5b565b5f60208284031215610b0e575f80fd5b81356001600160e01b031981168114610b25575f80fd5b9392505050565b5f60208284031215610b3c575f80fd5b5035919050565b6001600160a01b0381168114610954575f80fd5b5f8060408385031215610b68575f80fd5b823591506020830135610b7a81610b43565b809150509250929050565b5f8083601f840112610b95575f80fd5b50813567ffffffffffffffff811115610bac575f80fd5b6020830191508360208260051b8501011115610bc6575f80fd5b9250929050565b5f805f805f8060808789031215610be2575f80fd5b8635610bed81610b43565b95506020870135610bfd81610b43565b9450604087013567ffffffffffffffff80821115610c19575f80fd5b610c258a838b01610b85565b90965094506060890135915080821115610c3d575f80fd5b50610c4a89828a01610b85565b979a9699509497509295939492505050565b5f60018201610c7957634e487b7160e01b5f52601160045260245ffd5b5060010190565b634e487b7160e01b5f52603260045260245ffd5b5f60208284031215610ca4575f80fd5b8151610b2581610b43565b8183525f6001600160fb1b03831115610cc6575f80fd5b8260051b80836020870137939093016020019392505050565b606081525f610cf2606083018789610caf565b8281036020840152610d05818688610caf565b915050826040830152969550505050505056fea164736f6c6343000818000a","linkReferences":{}},"methodIdentifiers":{"ADMIN_ROLE()":"75b238fc","DEFAULT_ADMIN_ROLE()":"a217fddf","cancelTrade(uint256)":"09ec6cc7","cardNFT()":"38d5d7d1","completedTrades(uint256)":"af2aa8bd","executeTrade(address,address,uint256[],uint256[])":"7479da6a","getNextTradeId()":"ea4aa016","getRoleAdmin(bytes32)":"248a9ca3","grantRole(bytes32,address)":"2f2ff15d","hasRole(bytes32,address)":"91d14854","isTradeCompleted(uint256)":"d93315ba","renounceRole(bytes32,address)":"36568abe","revokeRole(bytes32,address)":"d547741f","supportsInterface(bytes4)":"01ffc9a7"},"id":39}